{
  "contractName": "SimpleBank",
  "abi": [
    {
      "inputs": [],
      "payable": false,
      "stateMutability": "nonpayable",
      "type": "constructor"
    },
    {
      "anonymous": false,
      "inputs": [
        {
          "indexed": true,
          "internalType": "address",
          "name": "_to",
          "type": "address"
        },
        {
          "indexed": false,
          "internalType": "uint256",
          "name": "_amount",
          "type": "uint256"
        }
      ],
      "name": "LogDepositMade",
      "type": "event"
    },
    {
      "anonymous": false,
      "inputs": [
        {
          "indexed": true,
          "internalType": "address",
          "name": "_accountEnrolled",
          "type": "address"
        }
      ],
      "name": "LogEnrolled",
      "type": "event"
    },
    {
      "anonymous": false,
      "inputs": [],
      "name": "LogWithdrawal",
      "type": "event"
    },
    {
      "payable": true,
      "stateMutability": "payable",
      "type": "fallback"
    },
    {
      "constant": true,
      "inputs": [
        {
          "internalType": "address",
          "name": "",
          "type": "address"
        }
      ],
      "name": "balances",
      "outputs": [
        {
          "internalType": "uint256",
          "name": "",
          "type": "uint256"
        }
      ],
      "payable": false,
      "stateMutability": "view",
      "type": "function"
    },
    {
      "constant": true,
      "inputs": [
        {
          "internalType": "address",
          "name": "",
          "type": "address"
        }
      ],
      "name": "enrolled",
      "outputs": [
        {
          "internalType": "bool",
          "name": "",
          "type": "bool"
        }
      ],
      "payable": false,
      "stateMutability": "view",
      "type": "function"
    },
    {
      "constant": true,
      "inputs": [],
      "name": "owner",
      "outputs": [
        {
          "internalType": "address",
          "name": "",
          "type": "address"
        }
      ],
      "payable": false,
      "stateMutability": "view",
      "type": "function"
    },
    {
      "constant": true,
      "inputs": [
        {
          "internalType": "address",
          "name": "_clientAddress",
          "type": "address"
        }
      ],
      "name": "getBalance",
      "outputs": [
        {
          "internalType": "uint256",
          "name": "",
          "type": "uint256"
        }
      ],
      "payable": false,
      "stateMutability": "view",
      "type": "function"
    },
    {
      "constant": false,
      "inputs": [],
      "name": "enroll",
      "outputs": [
        {
          "internalType": "bool",
          "name": "",
          "type": "bool"
        }
      ],
      "payable": false,
      "stateMutability": "nonpayable",
      "type": "function"
    },
    {
      "constant": false,
      "inputs": [],
      "name": "deposit",
      "outputs": [
        {
          "internalType": "uint256",
          "name": "",
          "type": "uint256"
        }
      ],
      "payable": true,
      "stateMutability": "payable",
      "type": "function"
    },
    {
      "constant": false,
      "inputs": [
        {
          "internalType": "uint256",
          "name": "withdrawAmount",
          "type": "uint256"
        }
      ],
      "name": "withdraw",
      "outputs": [
        {
          "internalType": "uint256",
          "name": "",
          "type": "uint256"
        }
      ],
      "payable": false,
      "stateMutability": "nonpayable",
      "type": "function"
    }
  ],
  "bytecode": "0x608060405234801561001057600080fd5b5033600260006101000a81548173ffffffffffffffffffffffffffffffffffffffff021916908373ffffffffffffffffffffffffffffffffffffffff160217905550610562806100616000396000f3fe6080604052600436106100705760003560e01c80638da5cb5b1161004e5780638da5cb5b14610192578063d0e30db0146101e9578063e65f2a7e14610207578063f8b2cb4f1461023657610070565b806310eb0e0e1461007557806327e235e3146100de5780632e1a7d4d14610143575b600080fd5b34801561008157600080fd5b506100c46004803603602081101561009857600080fd5b81019080803573ffffffffffffffffffffffffffffffffffffffff16906020019092919050505061029b565b604051808215151515815260200191505060405180910390f35b3480156100ea57600080fd5b5061012d6004803603602081101561010157600080fd5b81019080803573ffffffffffffffffffffffffffffffffffffffff1690602001909291905050506102bb565b6040518082815260200191505060405180910390f35b34801561014f57600080fd5b5061017c6004803603602081101561016657600080fd5b81019080803590602001909291905050506102d3565b6040518082815260200191505060405180910390f35b34801561019e57600080fd5b506101a76102da565b604051808273ffffffffffffffffffffffffffffffffffffffff1673ffffffffffffffffffffffffffffffffffffffff16815260200191505060405180910390f35b6101f1610300565b6040518082815260200191505060405180910390f35b34801561021357600080fd5b5061021c6103ba565b604051808215151515815260200191505060405180910390f35b34801561024257600080fd5b506102856004803603602081101561025957600080fd5b81019080803573ffffffffffffffffffffffffffffffffffffffff169060200190929190505050610477565b6040518082815260200191505060405180910390f35b60016020528060005260406000206000915054906101000a900460ff1681565b60006020528060005260406000206000915090505481565b6000919050565b600260009054906101000a900473ffffffffffffffffffffffffffffffffffffffff1681565b60008061030c336104bf565b90506001151581151514156103b657346000803373ffffffffffffffffffffffffffffffffffffffff1673ffffffffffffffffffffffffffffffffffffffff168152602001908152602001600020600082825401925050819055503373ffffffffffffffffffffffffffffffffffffffff167fa8126f7572bb1fdeae5b5aa9ec126438b91f658a07873f009d041ae690f3a193346040518082815260200191505060405180910390a25b5090565b6000806103c6336104bf565b905060001515811515141561042d5760018060003373ffffffffffffffffffffffffffffffffffffffff1673ffffffffffffffffffffffffffffffffffffffff16815260200190815260200160002060006101000a81548160ff0219169083151502179055505b3373ffffffffffffffffffffffffffffffffffffffff167f990c442e6adb818b8fa7db3cf1023decd07f7b66e5306928c7ed527d974192bb60405160405180910390a28091505090565b60008060008373ffffffffffffffffffffffffffffffffffffffff1673ffffffffffffffffffffffffffffffffffffffff168152602001908152602001600020549050919050565b600060011515600160008473ffffffffffffffffffffffffffffffffffffffff1673ffffffffffffffffffffffffffffffffffffffff16815260200190815260200160002060009054906101000a900460ff16151514156105235760019050610528565b600090505b91905056fea265627a7a7231582049bf1707dc339b121995257740a39b8a301d615466023f9be14968f4646be7b364736f6c63430005100032",
  "source": "/*\n * This exercise has been updated to use Solidity version 0.8.5\n * See the latest Solidity updates at\n * https://solidity.readthedocs.io/en/latest/080-breaking-changes.html\n */\n// SPDX-License-Identifier: MIT\npragma solidity >=0.5.16 <0.9.0;\n\ncontract SimpleBank {\n\n    /* State variables\n     */\n    \n    \n    // Fill in the visibility keyword. \n    // Hint: We want to protect our users balance from other contracts\n    mapping (address => uint) public balances ;\n    \n    // Fill in the visibility keyword\n    // Hint: We want to create a getter function and allow contracts to be able\n    //       to see if a user is enrolled.\n    mapping (address => bool) public enrolled;\n\n    // Let's make sure everyone knows who owns the bank, yes, fill in the\n    // appropriate visilibility keyword\n    address public owner;\n    constructor () public{\n      owner = msg.sender;\n    }\n    \n    \n    /* Events - publicize actions to external listeners\n     */\n    \n    // Add an argument for this event, an accountAddress\n    event LogEnrolled(address indexed _accountEnrolled);\n\n    // Add 2 arguments for this event, an accountAddress and an amount\n    event LogDepositMade(address indexed _to, uint _amount);\n\n    // Create an event called LogWithdrawal\n    // Hint: it should take 3 arguments: an accountAddress, withdrawAmount and a newBalance \n    event LogWithdrawal();\n\n    /* Functions\n     */\n    /*\n     modifier onlyOwner(){\n       require (msg.sender == )\n     }\n    */\n    // Fallback function - Called if other functions don't match call or\n    // sent ether without data\n    // Typically, called when invalid data is sent\n    // Added so ether sent to this contract is reverted if the contract fails\n    // otherwise, the sender's money is transferred to contract\n    function () external payable {\n        revert();\n    }\n\n    /// @notice Get balance\n    /// @return The balance of the user\n    function getBalance(address _clientAddress) public view returns (uint) {\n      // 1. A SPECIAL KEYWORD prevents function from editing state variables;\n      //    allows function to run locally/off blockchain\n      // 2. Get the balance of the sender of this transaction\n      return balances[_clientAddress];\n    }\n\n    /// @notice Enroll a customer with the bank\n    /// @return The users enrolled status\n    // Emit the appropriate event\n    function enroll() public returns (bool){\n      // 1. enroll of the sender of this transaction\n       bool resultado = isEnroll(msg.sender) ;\n        if (resultado == false){ \n          enrolled[msg.sender] = true; //If doesnt existe then it is enrolled\n        } \n        emit LogEnrolled(msg.sender);\n        return resultado;\n    }\n\n    /// @notice Deposit ether into bank\n    /// @return The balance of the user after the deposit is made\n    function deposit() public payable returns (uint) {\n      // 1. Add the appropriate keyword so that this function can receive ether\n       bool resultado = isEnroll(msg.sender);\n      // 2. Users should be enrolled before they can make deposits\n      // 3. Add the amount to the user's balance. Hint: the amount can be\n      //    accessed from of the global variable `msg`\n        if (resultado == true){ \n          balances[msg.sender] += msg.value;\n          emit LogDepositMade(msg.sender,msg.value);\n        }\n      \n\n\n      // 4. Emit the appropriate event associated with this function\n\n      // 5. return the balance of sndr of this transaction\n    }\n\n    /// @notice Withdraw ether from bank\n    /// @dev This does not return any excess ether sent to it\n    /// @param withdrawAmount amount you want to withdraw\n    /// @return The balance remaining for the user\n    function withdraw(uint withdrawAmount) public returns (uint) {\n      // If the sender's balance is at least the amount they want to withdraw,\n      // Subtract the amount from the sender's balance, and try to send that amount of ether\n      // to the user attempting to withdraw. \n      // return the user's balance.\n\n      // 1. Use a require expression to guard/ensure sender has enough funds\n\n      // 2. Transfer Eth to the sender and decrement the withdrawal amount from\n      //    sender's balance\n\n      // 3. Emit the appropriate event for this message\n    }\n\n        // Function to verify if the client is already enrolled\n    function isEnroll(address clientAddress) internal view returns (bool){\n      if (enrolled[clientAddress] == true){\n        return true;\n      }\n      else{\n        return false;\n      }\n    }\n\n}\n",
  "sourcePath": "/home/jdelichotti/consensys/simple-bank-exercise-jdelichotti/contracts/SimpleBank.sol",
  "compiler": {
    "name": "solc",
    "version": "0.5.16+commit.9c3226ce.Emscripten.clang"
  },
  "schemaVersion": "3.4.3",
  "updatedAt": "2021-10-10T19:05:09.540Z",
  "networkType": "ethereum",
  "devdoc": {
    "methods": {
      "deposit()": {
        "return": "The balance of the user after the deposit is made"
      },
      "enroll()": {
        "return": "The users enrolled status"
      },
      "getBalance(address)": {
        "return": "The balance of the user"
      },
      "withdraw(uint256)": {
        "details": "This does not return any excess ether sent to it",
        "params": {
          "withdrawAmount": "amount you want to withdraw"
        },
        "return": "The balance remaining for the user"
      }
    }
  },
  "userdoc": {
    "methods": {
      "deposit()": {
        "notice": "Deposit ether into bank"
      },
      "enroll()": {
        "notice": "Enroll a customer with the bank"
      },
      "getBalance(address)": {
        "notice": "Get balance"
      },
      "withdraw(uint256)": {
        "notice": "Withdraw ether from bank"
      }
    }
  }
}